:10000000E7EF00F0EA6A0A0EE96EEF500DE0020E2B
:10001000016E006A002EFED7012EFBD7970E006EF0
:10002000002EFED7EF2EF3D712000EB002D08C9622
:1000300001D08C8695960EB202D08C9801D08C8817
:1000400095980EB402D08C9A01D08C8A959A0EB6EF
:1000500002D08C9C01D08C8C959C00008C84959453
:1000600000D000D08C94959412000F6A9586000EF3
:1000700083B6010E0F129588000E83B8010E006E34
:10008000D890003600500F12958A000E83BA010EE8
:10009000006E00360036FC0E001600500F12958CD4
:1000A000000E83BC010E006E003600360036F80EDE
:1000B000001600500F120FC001F0120095869588AF
:1000C000958A958C8C82959200008C849594000082
:1000D000CCDF01C00EF08C94959400008C84959434
:1000E00000D0C3DF01C00DF08C949594959695983F
:1000F000959A959C0E38006EF00E001600500D106B
:10010000016E89EF00F09594959095928C90959062
:10011000D5D701C00DF001BEFBD70B5202E18C9088
:1001200001D08C80959000008C92959200008C9468
:1001300095940C380D6E0F0E0D160DC00EF075DF78
:100140000C500F0B0D6E0E6E70DFE3EF00F0280EFB
:10015000066E0C0E076E010E086E060E096E8C946C
:1001600095948C9095908C92959295969598959A59
:10017000959C9594959095920F0E0A6E43DF010E13
:10018000056E0550030808E3030E0E6E4EDF050EE4
:100190000A6E38DF052AF5D7020E0E6E46DF050E11
:1001A0000A6E30DF056A055003080FE3036A055045
:1001B000060FE96E000E0320EA6EEFCF0AF00B6A1D
:1001C0000AC00CF0A0D7052AEED7F3EF00F0F86ACA
:1001D000D09E700ED36ED350C150C00B0F09C16EAC
:0A01E000070EB46EB4D7FFD7FFD7A7
:020000040030CA
:0E0000003FC8390E008700000FC00FE00F4010
:00000001FF
;PIC18F4550
;CRC=E294  CREATED="17-Dec-22 11:53"
